{
  "contractName": "MyContract",
  "abi": [
    {
      "inputs": [
        {
          "internalType": "uint256",
          "name": "",
          "type": "uint256"
        }
      ],
      "name": "personas",
      "outputs": [
        {
          "internalType": "string",
          "name": "nombre",
          "type": "string"
        },
        {
          "internalType": "string",
          "name": "correo",
          "type": "string"
        },
        {
          "internalType": "string",
          "name": "institucion",
          "type": "string"
        },
        {
          "internalType": "string",
          "name": "enfoque",
          "type": "string"
        },
        {
          "internalType": "address",
          "name": "wallet",
          "type": "address"
        }
      ],
      "stateMutability": "view",
      "type": "function",
      "constant": true
    },
    {
      "inputs": [],
      "name": "totalPersonas",
      "outputs": [
        {
          "internalType": "uint256",
          "name": "",
          "type": "uint256"
        }
      ],
      "stateMutability": "view",
      "type": "function",
      "constant": true
    },
    {
      "inputs": [
        {
          "internalType": "string",
          "name": "_nombre",
          "type": "string"
        },
        {
          "internalType": "string",
          "name": "_correo",
          "type": "string"
        },
        {
          "internalType": "string",
          "name": "_institucion",
          "type": "string"
        },
        {
          "internalType": "string",
          "name": "_enfoque",
          "type": "string"
        },
        {
          "internalType": "address",
          "name": "_wallet",
          "type": "address"
        }
      ],
      "name": "setPersona",
      "outputs": [],
      "stateMutability": "nonpayable",
      "type": "function"
    },
    {
      "inputs": [
        {
          "internalType": "uint256",
          "name": "_indice",
          "type": "uint256"
        }
      ],
      "name": "getPersona",
      "outputs": [
        {
          "internalType": "string",
          "name": "",
          "type": "string"
        },
        {
          "internalType": "string",
          "name": "",
          "type": "string"
        },
        {
          "internalType": "string",
          "name": "",
          "type": "string"
        },
        {
          "internalType": "string",
          "name": "",
          "type": "string"
        },
        {
          "internalType": "address",
          "name": "",
          "type": "address"
        }
      ],
      "stateMutability": "view",
      "type": "function",
      "constant": true
    },
    {
      "inputs": [
        {
          "internalType": "uint256",
          "name": "_indice",
          "type": "uint256"
        }
      ],
      "name": "getNombre",
      "outputs": [
        {
          "internalType": "string",
          "name": "",
          "type": "string"
        }
      ],
      "stateMutability": "view",
      "type": "function",
      "constant": true
    },
    {
      "inputs": [
        {
          "internalType": "uint256",
          "name": "_indice",
          "type": "uint256"
        }
      ],
      "name": "getCorreo",
      "outputs": [
        {
          "internalType": "string",
          "name": "",
          "type": "string"
        }
      ],
      "stateMutability": "view",
      "type": "function",
      "constant": true
    },
    {
      "inputs": [
        {
          "internalType": "uint256",
          "name": "_indice",
          "type": "uint256"
        },
        {
          "internalType": "string",
          "name": "_correo",
          "type": "string"
        }
      ],
      "name": "setCorreo",
      "outputs": [],
      "stateMutability": "nonpayable",
      "type": "function"
    },
    {
      "inputs": [
        {
          "internalType": "uint256",
          "name": "_indice",
          "type": "uint256"
        }
      ],
      "name": "getInstitucion",
      "outputs": [
        {
          "internalType": "string",
          "name": "",
          "type": "string"
        }
      ],
      "stateMutability": "view",
      "type": "function",
      "constant": true
    },
    {
      "inputs": [
        {
          "internalType": "uint256",
          "name": "_indice",
          "type": "uint256"
        },
        {
          "internalType": "string",
          "name": "_institucion",
          "type": "string"
        }
      ],
      "name": "setInstitucion",
      "outputs": [],
      "stateMutability": "nonpayable",
      "type": "function"
    },
    {
      "inputs": [
        {
          "internalType": "uint256",
          "name": "_indice",
          "type": "uint256"
        }
      ],
      "name": "getEnfoque",
      "outputs": [
        {
          "internalType": "string",
          "name": "",
          "type": "string"
        }
      ],
      "stateMutability": "view",
      "type": "function",
      "constant": true
    },
    {
      "inputs": [
        {
          "internalType": "uint256",
          "name": "_indice",
          "type": "uint256"
        },
        {
          "internalType": "string",
          "name": "_enfoque",
          "type": "string"
        }
      ],
      "name": "setEnfoque",
      "outputs": [],
      "stateMutability": "nonpayable",
      "type": "function"
    },
    {
      "inputs": [
        {
          "internalType": "uint256",
          "name": "_indice",
          "type": "uint256"
        }
      ],
      "name": "getWallet",
      "outputs": [
        {
          "internalType": "address",
          "name": "",
          "type": "address"
        }
      ],
      "stateMutability": "view",
      "type": "function",
      "constant": true
    }
  ],
  "bytecode": "0x608060405234801561001057600080fd5b50611527806100206000396000f3fe608060405234801561001057600080fd5b50600436106100b45760003560e01c8063791178f111610071578063791178f1146101bb578063a7217629146101d7578063af2b9f8814610207578063c6b1eeca14610237578063d74cc8b214610253578063f3d2d31214610283576100b4565b806314f9dc8b146100b9578063399a2b7a146100ed57806340291e6a1461010b578063508607041461013f5780635470b13b1461015b5780635afbf3e51461018b575b600080fd5b6100d360048036038101906100ce9190611062565b61029f565b6040516100e49594939291906111a2565b60405180910390f35b6100f56105d7565b6040516101029190611231565b60405180910390f35b61012560048036038101906101209190611062565b6105dd565b6040516101369594939291906111a2565b60405180910390f35b6101596004803603810190610154919061108f565b610853565b005b61017560048036038101906101709190611062565b610881565b6040516101829190611165565b60405180910390f35b6101a560048036038101906101a09190611062565b610904565b6040516101b29190611180565b60405180910390f35b6101d560048036038101906101d0919061108f565b6109ef565b005b6101f160048036038101906101ec9190611062565b610a1d565b6040516101fe9190611180565b60405180910390f35b610221600480360381019061021c9190611062565b610b08565b60405161022e9190611180565b60405180910390f35b610251600480360381019061024c9190610f77565b610bf3565b005b61026d60048036038101906102689190611062565b610d21565b60405161027a9190611180565b60405180910390f35b61029d6004803603810190610298919061108f565b610e0c565b005b606080606080600060015486106102eb576040517f08c379a00000000000000000000000000000000000000000000000000000000081526004016102e290611211565b60405180910390fd5b60008060008881526020019081526020016000206040518060a001604052908160008201805461031a9061133c565b80601f01602080910402602001604051908101604052809291908181526020018280546103469061133c565b80156103935780601f1061036857610100808354040283529160200191610393565b820191906000526020600020905b81548152906001019060200180831161037657829003601f168201915b505050505081526020016001820180546103ac9061133c565b80601f01602080910402602001604051908101604052809291908181526020018280546103d89061133c565b80156104255780601f106103fa57610100808354040283529160200191610425565b820191906000526020600020905b81548152906001019060200180831161040857829003601f168201915b5050505050815260200160028201805461043e9061133c565b80601f016020809104026020016040519081016040528092919081815260200182805461046a9061133c565b80156104b75780601f1061048c576101008083540402835291602001916104b7565b820191906000526020600020905b81548152906001019060200180831161049a57829003601f168201915b505050505081526020016003820180546104d09061133c565b80601f01602080910402602001604051908101604052809291908181526020018280546104fc9061133c565b80156105495780601f1061051e57610100808354040283529160200191610549565b820191906000526020600020905b81548152906001019060200180831161052c57829003601f168201915b505050505081526020016004820160009054906101000a900473ffffffffffffffffffffffffffffffffffffffff1673ffffffffffffffffffffffffffffffffffffffff1673ffffffffffffffffffffffffffffffffffffffff1681525050905080600001518160200151826040015183606001518460800151955095509550955095505091939590929450565b60015481565b60006020528060005260406000206000915090508060000180546106009061133c565b80601f016020809104026020016040519081016040528092919081815260200182805461062c9061133c565b80156106795780601f1061064e57610100808354040283529160200191610679565b820191906000526020600020905b81548152906001019060200180831161065c57829003601f168201915b50505050509080600101805461068e9061133c565b80601f01602080910402602001604051908101604052809291908181526020018280546106ba9061133c565b80156107075780601f106106dc57610100808354040283529160200191610707565b820191906000526020600020905b8154815290600101906020018083116106ea57829003601f168201915b50505050509080600201805461071c9061133c565b80601f01602080910402602001604051908101604052809291908181526020018280546107489061133c565b80156107955780601f1061076a57610100808354040283529160200191610795565b820191906000526020600020905b81548152906001019060200180831161077857829003601f168201915b5050505050908060030180546107aa9061133c565b80601f01602080910402602001604051908101604052809291908181526020018280546107d69061133c565b80156108235780601f106107f857610100808354040283529160200191610823565b820191906000526020600020905b81548152906001019060200180831161080657829003601f168201915b5050505050908060040160009054906101000a900473ffffffffffffffffffffffffffffffffffffffff16905085565b80600080848152602001908152602001600020600101908051906020019061087c929190610e3a565b505050565b600060015482106108c7576040517f08c379a00000000000000000000000000000000000000000000000000000000081526004016108be90611211565b60405180910390fd5b60008083815260200190815260200160002060040160009054906101000a900473ffffffffffffffffffffffffffffffffffffffff169050919050565b6060600154821061094a576040517f08c379a000000000000000000000000000000000000000000000000000000000815260040161094190611211565b60405180910390fd5b600080838152602001908152602001600020600301805461096a9061133c565b80601f01602080910402602001604051908101604052809291908181526020018280546109969061133c565b80156109e35780601f106109b8576101008083540402835291602001916109e3565b820191906000526020600020905b8154815290600101906020018083116109c657829003601f168201915b50505050509050919050565b806000808481526020019081526020016000206003019080519060200190610a18929190610e3a565b505050565b60606001548210610a63576040517f08c379a0000000000000000000000000000000000000000000000000000000008152600401610a5a90611211565b60405180910390fd5b6000808381526020019081526020016000206000018054610a839061133c565b80601f0160208091040260200160405190810160405280929190818152602001828054610aaf9061133c565b8015610afc5780601f10610ad157610100808354040283529160200191610afc565b820191906000526020600020905b815481529060010190602001808311610adf57829003601f168201915b50505050509050919050565b60606001548210610b4e576040517f08c379a0000000000000000000000000000000000000000000000000000000008152600401610b4590611211565b60405180910390fd5b6000808381526020019081526020016000206001018054610b6e9061133c565b80601f0160208091040260200160405190810160405280929190818152602001828054610b9a9061133c565b8015610be75780601f10610bbc57610100808354040283529160200191610be7565b820191906000526020600020905b815481529060010190602001808311610bca57829003601f168201915b50505050509050919050565b6040518060a001604052808681526020018581526020018481526020018381526020018273ffffffffffffffffffffffffffffffffffffffff1681525060008060015481526020019081526020016000206000820151816000019080519060200190610c60929190610e3a565b506020820151816001019080519060200190610c7d929190610e3a565b506040820151816002019080519060200190610c9a929190610e3a565b506060820151816003019080519060200190610cb7929190610e3a565b5060808201518160040160006101000a81548173ffffffffffffffffffffffffffffffffffffffff021916908373ffffffffffffffffffffffffffffffffffffffff16021790555090505060016000815480929190610d159061139f565b91905055505050505050565b60606001548210610d67576040517f08c379a0000000000000000000000000000000000000000000000000000000008152600401610d5e90611211565b60405180910390fd5b6000808381526020019081526020016000206002018054610d879061133c565b80601f0160208091040260200160405190810160405280929190818152602001828054610db39061133c565b8015610e005780601f10610dd557610100808354040283529160200191610e00565b820191906000526020600020905b815481529060010190602001808311610de357829003601f168201915b50505050509050919050565b806000808481526020019081526020016000206002019080519060200190610e35929190610e3a565b505050565b828054610e469061133c565b90600052602060002090601f016020900481019282610e685760008555610eaf565b82601f10610e8157805160ff1916838001178555610eaf565b82800160010185558215610eaf579182015b82811115610eae578251825591602001919060010190610e93565b5b509050610ebc9190610ec0565b5090565b5b80821115610ed9576000816000905550600101610ec1565b5090565b6000610ef0610eeb84611271565b61124c565b905082815260208101848484011115610f0c57610f0b61147a565b5b610f178482856112fa565b509392505050565b600081359050610f2e816114c3565b92915050565b600082601f830112610f4957610f48611475565b5b8135610f59848260208601610edd565b91505092915050565b600081359050610f71816114da565b92915050565b600080600080600060a08688031215610f9357610f92611484565b5b600086013567ffffffffffffffff811115610fb157610fb061147f565b5b610fbd88828901610f34565b955050602086013567ffffffffffffffff811115610fde57610fdd61147f565b5b610fea88828901610f34565b945050604086013567ffffffffffffffff81111561100b5761100a61147f565b5b61101788828901610f34565b935050606086013567ffffffffffffffff8111156110385761103761147f565b5b61104488828901610f34565b925050608061105588828901610f1f565b9150509295509295909350565b60006020828403121561107857611077611484565b5b600061108684828501610f62565b91505092915050565b600080604083850312156110a6576110a5611484565b5b60006110b485828601610f62565b925050602083013567ffffffffffffffff8111156110d5576110d461147f565b5b6110e185828601610f34565b9150509250929050565b6110f4816112be565b82525050565b6000611105826112a2565b61110f81856112ad565b935061111f818560208601611309565b61112881611489565b840191505092915050565b60006111406015836112ad565b915061114b8261149a565b602082019050919050565b61115f816112f0565b82525050565b600060208201905061117a60008301846110eb565b92915050565b6000602082019050818103600083015261119a81846110fa565b905092915050565b600060a08201905081810360008301526111bc81886110fa565b905081810360208301526111d081876110fa565b905081810360408301526111e481866110fa565b905081810360608301526111f881856110fa565b905061120760808301846110eb565b9695505050505050565b6000602082019050818103600083015261122a81611133565b9050919050565b60006020820190506112466000830184611156565b92915050565b6000611256611267565b9050611262828261136e565b919050565b6000604051905090565b600067ffffffffffffffff82111561128c5761128b611446565b5b61129582611489565b9050602081019050919050565b600081519050919050565b600082825260208201905092915050565b60006112c9826112d0565b9050919050565b600073ffffffffffffffffffffffffffffffffffffffff82169050919050565b6000819050919050565b82818337600083830152505050565b60005b8381101561132757808201518184015260208101905061130c565b83811115611336576000848401525b50505050565b6000600282049050600182168061135457607f821691505b6020821081141561136857611367611417565b5b50919050565b61137782611489565b810181811067ffffffffffffffff8211171561139657611395611446565b5b80604052505050565b60006113aa826112f0565b91507fffffffffffffffffffffffffffffffffffffffffffffffffffffffffffffffff8214156113dd576113dc6113e8565b5b600182019050919050565b7f4e487b7100000000000000000000000000000000000000000000000000000000600052601160045260246000fd5b7f4e487b7100000000000000000000000000000000000000000000000000000000600052602260045260246000fd5b7f4e487b7100000000000000000000000000000000000000000000000000000000600052604160045260246000fd5b600080fd5b600080fd5b600080fd5b600080fd5b6000601f19601f8301169050919050565b7f496e646963652066756572612064652072616e676f0000000000000000000000600082015250565b6114cc816112be565b81146114d757600080fd5b50565b6114e3816112f0565b81146114ee57600080fd5b5056fea2646970667358221220b7aea3ad2713f0d6349b17d82fa3d36bb7f854c9fe973d9ce72f50e52e21b55f64736f6c63430008050033",
  "immutableReferences": {},
  "source": "// SPDX-License-Identifier: MIT\r\n\r\npragma solidity 0.8.5;\r\n//Crear matriz \r\ncontract MyContract {\r\n   struct Persona {\r\n        string nombre;\r\n        string correo;\r\n        string institucion;\r\n        string enfoque;\r\n        address wallet;\r\n    }\r\n\r\n    mapping(uint256 => Persona) public personas;\r\n    uint256 public totalPersonas;\r\n\r\n     function setPersona(\r\n        string memory _nombre,\r\n        string memory _correo,\r\n        string memory _institucion,\r\n        string memory _enfoque,\r\n        address _wallet\r\n    ) public {\r\n        personas[totalPersonas] = Persona(\r\n            _nombre,\r\n            _correo,\r\n            _institucion,\r\n            _enfoque,\r\n            _wallet\r\n        );\r\n        totalPersonas++;\r\n    }\r\n\r\n    function getPersona(uint256 _indice)\r\n        public\r\n        view\r\n        returns (\r\n            string memory,\r\n            string memory,\r\n            string memory,\r\n            string memory,\r\n            address\r\n        )\r\n    {\r\n        require(_indice < totalPersonas, \"Indice fuera de rango\");\r\n        Persona memory persona = personas[_indice];\r\n        return (\r\n            persona.nombre,\r\n            persona.correo,\r\n            persona.institucion,\r\n            persona.enfoque,\r\n            persona.wallet\r\n        );\r\n    }\r\n\r\n    function getNombre(uint256 _indice)\r\n        public\r\n        view\r\n        returns (\r\n            string memory\r\n\r\n        )\r\n    {\r\n        require(_indice < totalPersonas, \"Indice fuera de rango\");\r\n       return personas[_indice].nombre;\r\n    }\r\n\r\n    function getCorreo(uint256 _indice)\r\n        public\r\n        view\r\n        returns (\r\n            string memory\r\n        )\r\n    {\r\n        require(_indice < totalPersonas, \"Indice fuera de rango\");\r\n   \r\n           return personas[_indice].correo;\r\n\r\n    }\r\n\r\n    function setCorreo(\r\n        uint256 _indice,string memory _correo\r\n\r\n    ) public {\r\n        personas[_indice].correo = _correo;\r\n    }\r\n\r\n    function getInstitucion(uint256 _indice)\r\n        public\r\n        view\r\n        returns (\r\n            string memory\r\n        )\r\n    {\r\n        require(_indice < totalPersonas, \"Indice fuera de rango\");\r\n\r\n           return personas[_indice].institucion;\r\n   \r\n    }\r\n\r\n    function setInstitucion(\r\n        uint256 _indice,string memory _institucion\r\n\r\n    ) public {\r\n        personas[_indice].institucion = _institucion;\r\n    }\r\n\r\n    function getEnfoque(uint256 _indice)\r\n        public\r\n        view\r\n        returns (\r\n            string memory\r\n        )\r\n    {\r\n        require(_indice < totalPersonas, \"Indice fuera de rango\");\r\n       \r\n           return personas[_indice].enfoque;\r\n     }\r\n\r\n    function setEnfoque(\r\n        uint256 _indice,string memory _enfoque\r\n\r\n    ) public {\r\n        personas[_indice].enfoque = _enfoque;\r\n    }\r\n\r\n    function getWallet(uint256 _indice)\r\n        public\r\n        view\r\n        returns (\r\n            address\r\n        )\r\n    {\r\n        require(_indice < totalPersonas, \"Indice fuera de rango\");\r\n    \r\n           return personas[_indice].wallet;\r\n    }\r\n\r\n}\r\n",
  "sourcePath": "C:\\Users\\Tona\\Desktop\\near\\contracts\\Mycontract.sol",
  "compiler": {
    "name": "solc",
    "version": "0.8.5+commit.a4f2e591.Emscripten.clang"
  },
  "schemaVersion": "3.4.14",
  "updatedAt": "2023-05-26T06:01:49.721Z",
  "networkType": "ethereum",
  "devdoc": {
    "kind": "dev",
    "methods": {},
    "version": 1
  },
  "userdoc": {
    "kind": "user",
    "methods": {},
    "version": 1
  }
}