{
  "contractName": "Stakedemy",
  "abi": [
    {
      "inputs": [],
      "stateMutability": "nonpayable",
      "type": "constructor"
    },
    {
      "anonymous": false,
      "inputs": [
        {
          "indexed": true,
          "internalType": "address",
          "name": "owner",
          "type": "address"
        },
        {
          "indexed": true,
          "internalType": "address",
          "name": "approved",
          "type": "address"
        },
        {
          "indexed": true,
          "internalType": "uint256",
          "name": "tokenId",
          "type": "uint256"
        }
      ],
      "name": "Approval",
      "type": "event"
    },
    {
      "anonymous": false,
      "inputs": [
        {
          "indexed": true,
          "internalType": "address",
          "name": "owner",
          "type": "address"
        },
        {
          "indexed": true,
          "internalType": "address",
          "name": "operator",
          "type": "address"
        },
        {
          "indexed": false,
          "internalType": "bool",
          "name": "approved",
          "type": "bool"
        }
      ],
      "name": "ApprovalForAll",
      "type": "event"
    },
    {
      "anonymous": false,
      "inputs": [
        {
          "indexed": true,
          "internalType": "address",
          "name": "previousOwner",
          "type": "address"
        },
        {
          "indexed": true,
          "internalType": "address",
          "name": "newOwner",
          "type": "address"
        }
      ],
      "name": "OwnershipTransferred",
      "type": "event"
    },
    {
      "anonymous": false,
      "inputs": [
        {
          "indexed": true,
          "internalType": "address",
          "name": "from",
          "type": "address"
        },
        {
          "indexed": true,
          "internalType": "address",
          "name": "to",
          "type": "address"
        },
        {
          "indexed": true,
          "internalType": "uint256",
          "name": "tokenId",
          "type": "uint256"
        }
      ],
      "name": "Transfer",
      "type": "event"
    },
    {
      "inputs": [],
      "name": "MAX_MINT_PER_TX",
      "outputs": [
        {
          "internalType": "uint256",
          "name": "",
          "type": "uint256"
        }
      ],
      "stateMutability": "view",
      "type": "function",
      "constant": true
    },
    {
      "inputs": [],
      "name": "MAX_PRESALE_SUPPLY",
      "outputs": [
        {
          "internalType": "uint256",
          "name": "",
          "type": "uint256"
        }
      ],
      "stateMutability": "view",
      "type": "function",
      "constant": true
    },
    {
      "inputs": [],
      "name": "MAX_SUPPLY",
      "outputs": [
        {
          "internalType": "uint256",
          "name": "",
          "type": "uint256"
        }
      ],
      "stateMutability": "view",
      "type": "function",
      "constant": true
    },
    {
      "inputs": [],
      "name": "a1",
      "outputs": [
        {
          "internalType": "address",
          "name": "",
          "type": "address"
        }
      ],
      "stateMutability": "view",
      "type": "function",
      "constant": true
    },
    {
      "inputs": [
        {
          "internalType": "address",
          "name": "to",
          "type": "address"
        },
        {
          "internalType": "uint256",
          "name": "tokenId",
          "type": "uint256"
        }
      ],
      "name": "approve",
      "outputs": [],
      "stateMutability": "nonpayable",
      "type": "function"
    },
    {
      "inputs": [
        {
          "internalType": "address",
          "name": "owner",
          "type": "address"
        }
      ],
      "name": "balanceOf",
      "outputs": [
        {
          "internalType": "uint256",
          "name": "",
          "type": "uint256"
        }
      ],
      "stateMutability": "view",
      "type": "function",
      "constant": true
    },
    {
      "inputs": [],
      "name": "baseTokenURI",
      "outputs": [
        {
          "internalType": "string",
          "name": "",
          "type": "string"
        }
      ],
      "stateMutability": "view",
      "type": "function",
      "constant": true
    },
    {
      "inputs": [
        {
          "internalType": "uint256",
          "name": "tokenId",
          "type": "uint256"
        }
      ],
      "name": "getApproved",
      "outputs": [
        {
          "internalType": "address",
          "name": "",
          "type": "address"
        }
      ],
      "stateMutability": "view",
      "type": "function",
      "constant": true
    },
    {
      "inputs": [],
      "name": "initial_price",
      "outputs": [
        {
          "internalType": "uint256",
          "name": "",
          "type": "uint256"
        }
      ],
      "stateMutability": "view",
      "type": "function",
      "constant": true
    },
    {
      "inputs": [
        {
          "internalType": "address",
          "name": "owner",
          "type": "address"
        },
        {
          "internalType": "address",
          "name": "operator",
          "type": "address"
        }
      ],
      "name": "isApprovedForAll",
      "outputs": [
        {
          "internalType": "bool",
          "name": "",
          "type": "bool"
        }
      ],
      "stateMutability": "view",
      "type": "function",
      "constant": true
    },
    {
      "inputs": [],
      "name": "name",
      "outputs": [
        {
          "internalType": "string",
          "name": "",
          "type": "string"
        }
      ],
      "stateMutability": "view",
      "type": "function",
      "constant": true
    },
    {
      "inputs": [],
      "name": "owner",
      "outputs": [
        {
          "internalType": "address",
          "name": "",
          "type": "address"
        }
      ],
      "stateMutability": "view",
      "type": "function",
      "constant": true
    },
    {
      "inputs": [
        {
          "internalType": "uint256",
          "name": "tokenId",
          "type": "uint256"
        }
      ],
      "name": "ownerOf",
      "outputs": [
        {
          "internalType": "address",
          "name": "",
          "type": "address"
        }
      ],
      "stateMutability": "view",
      "type": "function",
      "constant": true
    },
    {
      "inputs": [],
      "name": "presaleActive",
      "outputs": [
        {
          "internalType": "bool",
          "name": "",
          "type": "bool"
        }
      ],
      "stateMutability": "view",
      "type": "function",
      "constant": true
    },
    {
      "inputs": [],
      "name": "price",
      "outputs": [
        {
          "internalType": "uint256",
          "name": "",
          "type": "uint256"
        }
      ],
      "stateMutability": "view",
      "type": "function",
      "constant": true
    },
    {
      "inputs": [],
      "name": "renounceOwnership",
      "outputs": [],
      "stateMutability": "nonpayable",
      "type": "function"
    },
    {
      "inputs": [
        {
          "internalType": "address",
          "name": "from",
          "type": "address"
        },
        {
          "internalType": "address",
          "name": "to",
          "type": "address"
        },
        {
          "internalType": "uint256",
          "name": "tokenId",
          "type": "uint256"
        }
      ],
      "name": "safeTransferFrom",
      "outputs": [],
      "stateMutability": "nonpayable",
      "type": "function"
    },
    {
      "inputs": [
        {
          "internalType": "address",
          "name": "from",
          "type": "address"
        },
        {
          "internalType": "address",
          "name": "to",
          "type": "address"
        },
        {
          "internalType": "uint256",
          "name": "tokenId",
          "type": "uint256"
        },
        {
          "internalType": "bytes",
          "name": "data",
          "type": "bytes"
        }
      ],
      "name": "safeTransferFrom",
      "outputs": [],
      "stateMutability": "nonpayable",
      "type": "function"
    },
    {
      "inputs": [],
      "name": "saleActive",
      "outputs": [
        {
          "internalType": "bool",
          "name": "",
          "type": "bool"
        }
      ],
      "stateMutability": "view",
      "type": "function",
      "constant": true
    },
    {
      "inputs": [
        {
          "internalType": "address",
          "name": "operator",
          "type": "address"
        },
        {
          "internalType": "bool",
          "name": "approved",
          "type": "bool"
        }
      ],
      "name": "setApprovalForAll",
      "outputs": [],
      "stateMutability": "nonpayable",
      "type": "function"
    },
    {
      "inputs": [
        {
          "internalType": "bytes4",
          "name": "interfaceId",
          "type": "bytes4"
        }
      ],
      "name": "supportsInterface",
      "outputs": [
        {
          "internalType": "bool",
          "name": "",
          "type": "bool"
        }
      ],
      "stateMutability": "view",
      "type": "function",
      "constant": true
    },
    {
      "inputs": [],
      "name": "symbol",
      "outputs": [
        {
          "internalType": "string",
          "name": "",
          "type": "string"
        }
      ],
      "stateMutability": "view",
      "type": "function",
      "constant": true
    },
    {
      "inputs": [
        {
          "internalType": "uint256",
          "name": "index",
          "type": "uint256"
        }
      ],
      "name": "tokenByIndex",
      "outputs": [
        {
          "internalType": "uint256",
          "name": "",
          "type": "uint256"
        }
      ],
      "stateMutability": "view",
      "type": "function",
      "constant": true
    },
    {
      "inputs": [
        {
          "internalType": "address",
          "name": "owner",
          "type": "address"
        },
        {
          "internalType": "uint256",
          "name": "index",
          "type": "uint256"
        }
      ],
      "name": "tokenOfOwnerByIndex",
      "outputs": [
        {
          "internalType": "uint256",
          "name": "",
          "type": "uint256"
        }
      ],
      "stateMutability": "view",
      "type": "function",
      "constant": true
    },
    {
      "inputs": [
        {
          "internalType": "uint256",
          "name": "tokenId",
          "type": "uint256"
        }
      ],
      "name": "tokenURI",
      "outputs": [
        {
          "internalType": "string",
          "name": "",
          "type": "string"
        }
      ],
      "stateMutability": "view",
      "type": "function",
      "constant": true
    },
    {
      "inputs": [],
      "name": "totalSupply",
      "outputs": [
        {
          "internalType": "uint256",
          "name": "",
          "type": "uint256"
        }
      ],
      "stateMutability": "view",
      "type": "function",
      "constant": true
    },
    {
      "inputs": [
        {
          "internalType": "address",
          "name": "from",
          "type": "address"
        },
        {
          "internalType": "address",
          "name": "to",
          "type": "address"
        },
        {
          "internalType": "uint256",
          "name": "tokenId",
          "type": "uint256"
        }
      ],
      "name": "transferFrom",
      "outputs": [],
      "stateMutability": "nonpayable",
      "type": "function"
    },
    {
      "inputs": [
        {
          "internalType": "address",
          "name": "newOwner",
          "type": "address"
        }
      ],
      "name": "transferOwnership",
      "outputs": [],
      "stateMutability": "nonpayable",
      "type": "function"
    },
    {
      "inputs": [],
      "name": "whitelistActive",
      "outputs": [
        {
          "internalType": "bool",
          "name": "",
          "type": "bool"
        }
      ],
      "stateMutability": "view",
      "type": "function",
      "constant": true
    },
    {
      "inputs": [
        {
          "internalType": "address",
          "name": "",
          "type": "address"
        }
      ],
      "name": "whitelistReserved",
      "outputs": [
        {
          "internalType": "uint256",
          "name": "",
          "type": "uint256"
        }
      ],
      "stateMutability": "view",
      "type": "function",
      "constant": true
    },
    {
      "inputs": [
        {
          "internalType": "address",
          "name": "addr",
          "type": "address"
        }
      ],
      "name": "tokensOfOwner",
      "outputs": [
        {
          "internalType": "uint256[]",
          "name": "",
          "type": "uint256[]"
        }
      ],
      "stateMutability": "view",
      "type": "function",
      "constant": true
    },
    {
      "inputs": [
        {
          "internalType": "uint256",
          "name": "_amount",
          "type": "uint256"
        }
      ],
      "name": "mintWhitelist",
      "outputs": [],
      "stateMutability": "payable",
      "type": "function",
      "payable": true
    },
    {
      "inputs": [
        {
          "internalType": "uint256",
          "name": "_amount",
          "type": "uint256"
        }
      ],
      "name": "mintToken",
      "outputs": [],
      "stateMutability": "payable",
      "type": "function",
      "payable": true
    },
    {
      "inputs": [
        {
          "internalType": "address[]",
          "name": "_a",
          "type": "address[]"
        },
        {
          "internalType": "uint256[]",
          "name": "_amount",
          "type": "uint256[]"
        }
      ],
      "name": "editWhitelistReserved",
      "outputs": [],
      "stateMutability": "nonpayable",
      "type": "function"
    },
    {
      "inputs": [
        {
          "internalType": "bool",
          "name": "val",
          "type": "bool"
        }
      ],
      "name": "setWhitelistActive",
      "outputs": [],
      "stateMutability": "nonpayable",
      "type": "function"
    },
    {
      "inputs": [
        {
          "internalType": "bool",
          "name": "val",
          "type": "bool"
        }
      ],
      "name": "setSaleActive",
      "outputs": [],
      "stateMutability": "nonpayable",
      "type": "function"
    },
    {
      "inputs": [
        {
          "internalType": "string",
          "name": "baseURI",
          "type": "string"
        }
      ],
      "name": "setBaseURI",
      "outputs": [],
      "stateMutability": "nonpayable",
      "type": "function"
    },
    {
      "inputs": [
        {
          "internalType": "uint256",
          "name": "newPrice",
          "type": "uint256"
        }
      ],
      "name": "setPrice",
      "outputs": [],
      "stateMutability": "nonpayable",
      "type": "function"
    },
    {
      "inputs": [
        {
          "internalType": "address[]",
          "name": "_a",
          "type": "address[]"
        }
      ],
      "name": "setAddresses",
      "outputs": [],
      "stateMutability": "nonpayable",
      "type": "function"
    },
    {
      "inputs": [
        {
          "internalType": "uint256",
          "name": "amount",
          "type": "uint256"
        }
      ],
      "name": "withdrawTeam",
      "outputs": [],
      "stateMutability": "payable",
      "type": "function",
      "payable": true
    }
  ],
  "bytecode": "0x60806040526000600a60146101000a81548160ff0219169083151502179055506000600a60156101000a81548160ff0219169083151502179055506000600a60166101000a81548160ff02191690831515021790555066038d7ea4c68000600b556040518060800160405280604f815260200162004bb4604f9139600d9080519060200190620000919291906200023d565b503480156200009f57600080fd5b506040518060400160405280600981526020017f5374616b6564656d7900000000000000000000000000000000000000000000008152506040518060400160405280600381526020017f534b4d00000000000000000000000000000000000000000000000000000000008152508160009080519060200190620001249291906200023d565b5080600190805190602001906200013d9291906200023d565b50505062000160620001546200016f60201b60201c565b6200017760201b60201c565b600b54600c8190555062000352565b600033905090565b6000600a60009054906101000a900473ffffffffffffffffffffffffffffffffffffffff16905081600a60006101000a81548173ffffffffffffffffffffffffffffffffffffffff021916908373ffffffffffffffffffffffffffffffffffffffff1602179055508173ffffffffffffffffffffffffffffffffffffffff168173ffffffffffffffffffffffffffffffffffffffff167f8be0079c531659141344cd1fd0a4f28419497f9722a3daafe3b4186f6b6457e060405160405180910390a35050565b8280546200024b90620002ed565b90600052602060002090601f0160209004810192826200026f5760008555620002bb565b82601f106200028a57805160ff1916838001178555620002bb565b82800160010185558215620002bb579182015b82811115620002ba5782518255916020019190600101906200029d565b5b509050620002ca9190620002ce565b5090565b5b80821115620002e9576000816000905550600101620002cf565b5090565b600060028204905060018216806200030657607f821691505b602082108114156200031d576200031c62000323565b5b50919050565b7f4e487b7100000000000000000000000000000000000000000000000000000000600052602260045260246000fd5b61485280620003626000396000f3fe60806040526004361061023b5760003560e01c806372e3a3eb1161012e578063b88d4fde116100ab578063d547cfb71161006f578063d547cfb71461087d578063e985e9c5146108a8578063f14c0bcc146108e5578063f2fde38b1461090e578063fd2b0492146109375761023b565b8063b88d4fde146107a9578063b9571721146107d2578063c3b754dc146107fb578063c634d03214610824578063c87b56dd146108405761023b565b806391b7f5ed116100f257806391b7f5ed146106d657806395d89b41146106ff578063a035b1fe1461072a578063a22cb46514610755578063ab3f5a1a1461077e5761023b565b806372e3a3eb146105dd578063841718a61461061a5780638462151c146106435780638da5cb5b146106805780638ecad721146106ab5761023b565b806342842e0e116101bc5780636352211e116101805780636352211e146104f657806368428a1b146105335780636b8dc3551461055e57806370a0823114610589578063715018a6146105c65761023b565b806342842e0e146104205780634618163e146104495780634f6ccce71461046557806353135ca0146104a257806355f804b3146104cd5761023b565b8063119552a111610203578063119552a11461033957806318160ddd1461036457806323b872dd1461038f5780632f745c59146103b857806332cb6b0c146103f55761023b565b806301ffc9a71461024057806302ce58131461027d57806306fdde03146102a8578063081812fc146102d3578063095ea7b314610310575b600080fd5b34801561024c57600080fd5b50610267600480360381019061026291906133de565b610953565b60405161027491906139d5565b60405180910390f35b34801561028957600080fd5b506102926109cd565b60405161029f91906139d5565b60405180910390f35b3480156102b457600080fd5b506102bd6109e0565b6040516102ca91906139f0565b60405180910390f35b3480156102df57600080fd5b506102fa60048036038101906102f59190613481565b610a72565b604051610307919061394c565b60405180910390f35b34801561031c57600080fd5b50610337600480360381019061033291906132b0565b610ab8565b005b34801561034557600080fd5b5061034e610bd0565b60405161035b919061394c565b60405180910390f35b34801561037057600080fd5b50610379610bf6565b6040516103869190613cf2565b60405180910390f35b34801561039b57600080fd5b506103b660048036038101906103b1919061319a565b610c03565b005b3480156103c457600080fd5b506103df60048036038101906103da91906132b0565b610c63565b6040516103ec9190613cf2565b60405180910390f35b34801561040157600080fd5b5061040a610d08565b6040516104179190613cf2565b60405180910390f35b34801561042c57600080fd5b506104476004803603810190610442919061319a565b610d0d565b005b610463600480360381019061045e9190613481565b610d2d565b005b34801561047157600080fd5b5061048c60048036038101906104879190613481565b610f78565b6040516104999190613cf2565b60405180910390f35b3480156104ae57600080fd5b506104b7610fe9565b6040516104c491906139d5565b60405180910390f35b3480156104d957600080fd5b506104f460048036038101906104ef9190613438565b610ffc565b005b34801561050257600080fd5b5061051d60048036038101906105189190613481565b61101e565b60405161052a919061394c565b60405180910390f35b34801561053f57600080fd5b506105486110a5565b60405161055591906139d5565b60405180910390f35b34801561056a57600080fd5b506105736110b8565b6040516105809190613cf2565b60405180910390f35b34801561059557600080fd5b506105b060048036038101906105ab919061312d565b6110bd565b6040516105bd9190613cf2565b60405180910390f35b3480156105d257600080fd5b506105db611175565b005b3480156105e957600080fd5b5061060460048036038101906105ff919061312d565b611189565b6040516106119190613cf2565b60405180910390f35b34801561062657600080fd5b50610641600480360381019061063c91906133b1565b6111a1565b005b34801561064f57600080fd5b5061066a6004803603810190610665919061312d565b6111c6565b60405161067791906139b3565b60405180910390f35b34801561068c57600080fd5b50610695611274565b6040516106a2919061394c565b60405180910390f35b3480156106b757600080fd5b506106c061129e565b6040516106cd9190613cf2565b60405180910390f35b3480156106e257600080fd5b506106fd60048036038101906106f89190613481565b6112a3565b005b34801561070b57600080fd5b506107146112b5565b60405161072191906139f0565b60405180910390f35b34801561073657600080fd5b5061073f611347565b60405161074c9190613cf2565b60405180910390f35b34801561076157600080fd5b5061077c60048036038101906107779190613270565b61134d565b005b34801561078a57600080fd5b50610793611363565b6040516107a09190613cf2565b60405180910390f35b3480156107b557600080fd5b506107d060048036038101906107cb91906131ed565b611369565b005b3480156107de57600080fd5b506107f960048036038101906107f491906132f0565b6113cb565b005b34801561080757600080fd5b50610822600480360381019061081d91906133b1565b611432565b005b61083e60048036038101906108399190613481565b611457565b005b34801561084c57600080fd5b5061086760048036038101906108629190613481565b6115d8565b60405161087491906139f0565b60405180910390f35b34801561088957600080fd5b50610892611640565b60405161089f91906139f0565b60405180910390f35b3480156108b457600080fd5b506108cf60048036038101906108ca919061315a565b6116ce565b6040516108dc91906139d5565b60405180910390f35b3480156108f157600080fd5b5061090c60048036038101906109079190613339565b611762565b005b34801561091a57600080fd5b506109356004803603810190610930919061312d565b611806565b005b610951600480360381019061094c9190613481565b61188a565b005b60007f780e9d63000000000000000000000000000000000000000000000000000000007bffffffffffffffffffffffffffffffffffffffffffffffffffffffff1916827bffffffffffffffffffffffffffffffffffffffffffffffffffffffff191614806109c657506109c582611913565b5b9050919050565b600a60159054906101000a900460ff1681565b6060600080546109ef90614033565b80601f0160208091040260200160405190810160405280929190818152602001828054610a1b90614033565b8015610a685780601f10610a3d57610100808354040283529160200191610a68565b820191906000526020600020905b815481529060010190602001808311610a4b57829003601f168201915b5050505050905090565b6000610a7d826119f5565b6004600083815260200190815260200160002060009054906101000a900473ffffffffffffffffffffffffffffffffffffffff169050919050565b6000610ac38261101e565b90508073ffffffffffffffffffffffffffffffffffffffff168373ffffffffffffffffffffffffffffffffffffffff161415610b34576040517f08c379a0000000000000000000000000000000000000000000000000000000008152600401610b2b90613c52565b60405180910390fd5b8073ffffffffffffffffffffffffffffffffffffffff16610b53611a40565b73ffffffffffffffffffffffffffffffffffffffff161480610b825750610b8181610b7c611a40565b6116ce565b5b610bc1576040517f08c379a0000000000000000000000000000000000000000000000000000000008152600401610bb890613c72565b60405180910390fd5b610bcb8383611a48565b505050565b600e60009054906101000a900473ffffffffffffffffffffffffffffffffffffffff1681565b6000600880549050905090565b610c14610c0e611a40565b82611b01565b610c53576040517f08c379a0000000000000000000000000000000000000000000000000000000008152600401610c4a90613a12565b60405180910390fd5b610c5e838383611b96565b505050565b6000610c6e836110bd565b8210610caf576040517f08c379a0000000000000000000000000000000000000000000000000000000008152600401610ca690613a72565b60405180910390fd5b600660008473ffffffffffffffffffffffffffffffffffffffff1673ffffffffffffffffffffffffffffffffffffffff168152602001908152602001600020600083815260200190815260200160002054905092915050565b606481565b610d2883838360405180602001604052806000815250611369565b505050565b6000610d37610bf6565b90506000600f60003373ffffffffffffffffffffffffffffffffffffffff1673ffffffffffffffffffffffffffffffffffffffff168152602001908152602001600020549050600a60159054906101000a900460ff16610dcc576040517f08c379a0000000000000000000000000000000000000000000000000000000008152600401610dc390613bb2565b60405180910390fd5b60008111610e0f576040517f08c379a0000000000000000000000000000000000000000000000000000000008152600401610e0690613b72565b60405180910390fd5b80831115610e52576040517f08c379a0000000000000000000000000000000000000000000000000000000008152600401610e4990613a32565b60405180910390fd5b60648383610e609190613e68565b1115610ea1576040517f08c379a0000000000000000000000000000000000000000000000000000000008152600401610e9890613b12565b60405180910390fd5b82600c54610eaf9190613eef565b3414610ef0576040517f08c379a0000000000000000000000000000000000000000000000000000000008152600401610ee790613cd2565b60405180910390fd5b8281610efc9190613f49565b600f60003373ffffffffffffffffffffffffffffffffffffffff1673ffffffffffffffffffffffffffffffffffffffff1681526020019081526020016000208190555060005b83811015610f7257610f5f338285610f5a9190613e68565b611e90565b8080610f6a90614096565b915050610f42565b50505050565b6000610f82610bf6565b8210610fc3576040517f08c379a0000000000000000000000000000000000000000000000000000000008152600401610fba90613c92565b60405180910390fd5b60088281548110610fd757610fd661419b565b5b90600052602060002001549050919050565b600a60169054906101000a900460ff1681565b611004611eae565b80600d908051906020019061101a929190612e05565b5050565b60008061102a83611f2c565b9050600073ffffffffffffffffffffffffffffffffffffffff168173ffffffffffffffffffffffffffffffffffffffff16141561109c576040517f08c379a000000000000000000000000000000000000000000000000000000000815260040161109390613c12565b60405180910390fd5b80915050919050565b600a60149054906101000a900460ff1681565b600181565b60008073ffffffffffffffffffffffffffffffffffffffff168273ffffffffffffffffffffffffffffffffffffffff16141561112e576040517f08c379a000000000000000000000000000000000000000000000000000000000815260040161112590613b92565b60405180910390fd5b600360008373ffffffffffffffffffffffffffffffffffffffff1673ffffffffffffffffffffffffffffffffffffffff168152602001908152602001600020549050919050565b61117d611eae565b6111876000611f69565b565b600f6020528060005260406000206000915090505481565b6111a9611eae565b80600a60146101000a81548160ff02191690831515021790555050565b606060006111d3836110bd565b905060008167ffffffffffffffff8111156111f1576111f06141ca565b5b60405190808252806020026020018201604052801561121f5781602001602082028036833780820191505090505b50905060005b82811015611269576112378582610c63565b82828151811061124a5761124961419b565b5b602002602001018181525050808061126190614096565b915050611225565b508092505050919050565b6000600a60009054906101000a900473ffffffffffffffffffffffffffffffffffffffff16905090565b600181565b6112ab611eae565b80600c8190555050565b6060600180546112c490614033565b80601f01602080910402602001604051908101604052809291908181526020018280546112f090614033565b801561133d5780601f106113125761010080835404028352916020019161133d565b820191906000526020600020905b81548152906001019060200180831161132057829003601f168201915b5050505050905090565b600c5481565b61135f611358611a40565b838361202f565b5050565b600b5481565b61137a611374611a40565b83611b01565b6113b9576040517f08c379a00000000000000000000000000000000000000000000000000000000081526004016113b090613a12565b60405180910390fd5b6113c58484848461219c565b50505050565b6113d3611eae565b806000815181106113e7576113e661419b565b5b6020026020010151600e60006101000a81548173ffffffffffffffffffffffffffffffffffffffff021916908373ffffffffffffffffffffffffffffffffffffffff16021790555050565b61143a611eae565b80600a60156101000a81548160ff02191690831515021790555050565b6000611461610bf6565b9050600a60149054906101000a900460ff166114b2576040517f08c379a00000000000000000000000000000000000000000000000000000000081526004016114a990613c32565b60405180910390fd5b6000821180156114c3575060018211155b611502576040517f08c379a00000000000000000000000000000000000000000000000000000000081526004016114f990613a52565b60405180910390fd5b606482826115109190613e68565b1115611551576040517f08c379a000000000000000000000000000000000000000000000000000000000815260040161154890613b12565b60405180910390fd5b81600c5461155f9190613eef565b34146115a0576040517f08c379a000000000000000000000000000000000000000000000000000000000815260040161159790613cd2565b60405180910390fd5b60005b828110156115d3576115c03382846115bb9190613e68565b611e90565b80806115cb90614096565b9150506115a3565b505050565b60606115e3826119f5565b60006115ed6121f8565b9050600081511161160d5760405180602001604052806000815250611638565b806116178461228a565b604051602001611628929190613928565b6040516020818303038152906040525b915050919050565b600d805461164d90614033565b80601f016020809104026020016040519081016040528092919081815260200182805461167990614033565b80156116c65780601f1061169b576101008083540402835291602001916116c6565b820191906000526020600020905b8154815290600101906020018083116116a957829003601f168201915b505050505081565b6000600560008473ffffffffffffffffffffffffffffffffffffffff1673ffffffffffffffffffffffffffffffffffffffff16815260200190815260200160002060008373ffffffffffffffffffffffffffffffffffffffff1673ffffffffffffffffffffffffffffffffffffffff16815260200190815260200160002060009054906101000a900460ff16905092915050565b61176a611eae565b60005b8251811015611801578181815181106117895761178861419b565b5b6020026020010151600f60008584815181106117a8576117a761419b565b5b602002602001015173ffffffffffffffffffffffffffffffffffffffff1673ffffffffffffffffffffffffffffffffffffffff1681526020019081526020016000208190555080806117f990614096565b91505061176d565b505050565b61180e611eae565b600073ffffffffffffffffffffffffffffffffffffffff168173ffffffffffffffffffffffffffffffffffffffff16141561187e576040517f08c379a000000000000000000000000000000000000000000000000000000000815260040161187590613ab2565b60405180910390fd5b61188781611f69565b50565b611892611eae565b60006064826118a19190613ebe565b9050600e60009054906101000a900473ffffffffffffffffffffffffffffffffffffffff1673ffffffffffffffffffffffffffffffffffffffff166108fc6064836118ec9190613eef565b9081150290604051600060405180830381858888f1935050505061190f57600080fd5b5050565b60007f80ac58cd000000000000000000000000000000000000000000000000000000007bffffffffffffffffffffffffffffffffffffffffffffffffffffffff1916827bffffffffffffffffffffffffffffffffffffffffffffffffffffffff191614806119de57507f5b5e139f000000000000000000000000000000000000000000000000000000007bffffffffffffffffffffffffffffffffffffffffffffffffffffffff1916827bffffffffffffffffffffffffffffffffffffffffffffffffffffffff1916145b806119ee57506119ed82612362565b5b9050919050565b6119fe816123cc565b611a3d576040517f08c379a0000000000000000000000000000000000000000000000000000000008152600401611a3490613c12565b60405180910390fd5b50565b600033905090565b816004600083815260200190815260200160002060006101000a81548173ffffffffffffffffffffffffffffffffffffffff021916908373ffffffffffffffffffffffffffffffffffffffff160217905550808273ffffffffffffffffffffffffffffffffffffffff16611abb8361101e565b73ffffffffffffffffffffffffffffffffffffffff167f8c5be1e5ebec7d5bd14f71427d1e84f3dd0314c0f7b2291e5b200ac8c7c3b92560405160405180910390a45050565b600080611b0d8361101e565b90508073ffffffffffffffffffffffffffffffffffffffff168473ffffffffffffffffffffffffffffffffffffffff161480611b4f5750611b4e81856116ce565b5b80611b8d57508373ffffffffffffffffffffffffffffffffffffffff16611b7584610a72565b73ffffffffffffffffffffffffffffffffffffffff16145b91505092915050565b8273ffffffffffffffffffffffffffffffffffffffff16611bb68261101e565b73ffffffffffffffffffffffffffffffffffffffff1614611c0c576040517f08c379a0000000000000000000000000000000000000000000000000000000008152600401611c0390613ad2565b60405180910390fd5b600073ffffffffffffffffffffffffffffffffffffffff168273ffffffffffffffffffffffffffffffffffffffff161415611c7c576040517f08c379a0000000000000000000000000000000000000000000000000000000008152600401611c7390613b32565b60405180910390fd5b611c89838383600161240d565b8273ffffffffffffffffffffffffffffffffffffffff16611ca98261101e565b73ffffffffffffffffffffffffffffffffffffffff1614611cff576040517f08c379a0000000000000000000000000000000000000000000000000000000008152600401611cf690613ad2565b60405180910390fd5b6004600082815260200190815260200160002060006101000a81549073ffffffffffffffffffffffffffffffffffffffff02191690556001600360008573ffffffffffffffffffffffffffffffffffffffff1673ffffffffffffffffffffffffffffffffffffffff168152602001908152602001600020600082825403925050819055506001600360008473ffffffffffffffffffffffffffffffffffffffff1673ffffffffffffffffffffffffffffffffffffffff16815260200190815260200160002060008282540192505081905550816002600083815260200190815260200160002060006101000a81548173ffffffffffffffffffffffffffffffffffffffff021916908373ffffffffffffffffffffffffffffffffffffffff160217905550808273ffffffffffffffffffffffffffffffffffffffff168473ffffffffffffffffffffffffffffffffffffffff167fddf252ad1be2c89b69c2b068fc378daa952ba7f163c4a11628f55a4df523b3ef60405160405180910390a4611e8b838383600161256d565b505050565b611eaa828260405180602001604052806000815250612573565b5050565b611eb6611a40565b73ffffffffffffffffffffffffffffffffffffffff16611ed4611274565b73ffffffffffffffffffffffffffffffffffffffff1614611f2a576040517f08c379a0000000000000000000000000000000000000000000000000000000008152600401611f2190613bf2565b60405180910390fd5b565b60006002600083815260200190815260200160002060009054906101000a900473ffffffffffffffffffffffffffffffffffffffff169050919050565b6000600a60009054906101000a900473ffffffffffffffffffffffffffffffffffffffff16905081600a60006101000a81548173ffffffffffffffffffffffffffffffffffffffff021916908373ffffffffffffffffffffffffffffffffffffffff1602179055508173ffffffffffffffffffffffffffffffffffffffff168173ffffffffffffffffffffffffffffffffffffffff167f8be0079c531659141344cd1fd0a4f28419497f9722a3daafe3b4186f6b6457e060405160405180910390a35050565b8173ffffffffffffffffffffffffffffffffffffffff168373ffffffffffffffffffffffffffffffffffffffff16141561209e576040517f08c379a000000000000000000000000000000000000000000000000000000000815260040161209590613b52565b60405180910390fd5b80600560008573ffffffffffffffffffffffffffffffffffffffff1673ffffffffffffffffffffffffffffffffffffffff16815260200190815260200160002060008473ffffffffffffffffffffffffffffffffffffffff1673ffffffffffffffffffffffffffffffffffffffff16815260200190815260200160002060006101000a81548160ff0219169083151502179055508173ffffffffffffffffffffffffffffffffffffffff168373ffffffffffffffffffffffffffffffffffffffff167f17307eab39ab6107e8899845ad3d59bd9653f200f220920489ca2b5937696c318360405161218f91906139d5565b60405180910390a3505050565b6121a7848484611b96565b6121b3848484846125ce565b6121f2576040517f08c379a00000000000000000000000000000000000000000000000000000000081526004016121e990613a92565b60405180910390fd5b50505050565b6060600d805461220790614033565b80601f016020809104026020016040519081016040528092919081815260200182805461223390614033565b80156122805780601f1061225557610100808354040283529160200191612280565b820191906000526020600020905b81548152906001019060200180831161226357829003601f168201915b5050505050905090565b60606000600161229984612765565b01905060008167ffffffffffffffff8111156122b8576122b76141ca565b5b6040519080825280601f01601f1916602001820160405280156122ea5781602001600182028036833780820191505090505b509050600082602001820190505b600115612357578080600190039150507f3031323334353637383961626364656600000000000000000000000000000000600a86061a8153600a85816123415761234061410e565b5b049450600085141561235257612357565b6122f8565b819350505050919050565b60007f01ffc9a7000000000000000000000000000000000000000000000000000000007bffffffffffffffffffffffffffffffffffffffffffffffffffffffff1916827bffffffffffffffffffffffffffffffffffffffffffffffffffffffff1916149050919050565b60008073ffffffffffffffffffffffffffffffffffffffff166123ee83611f2c565b73ffffffffffffffffffffffffffffffffffffffff1614159050919050565b612419848484846128b8565b600181111561245d576040517f08c379a000000000000000000000000000000000000000000000000000000000815260040161245490613cb2565b60405180910390fd5b6000829050600073ffffffffffffffffffffffffffffffffffffffff168573ffffffffffffffffffffffffffffffffffffffff1614156124a5576124a0816128be565b6124e4565b8373ffffffffffffffffffffffffffffffffffffffff168573ffffffffffffffffffffffffffffffffffffffff16146124e3576124e28582612907565b5b5b600073ffffffffffffffffffffffffffffffffffffffff168473ffffffffffffffffffffffffffffffffffffffff1614156125275761252281612a74565b612566565b8473ffffffffffffffffffffffffffffffffffffffff168473ffffffffffffffffffffffffffffffffffffffff1614612565576125648482612b45565b5b5b5050505050565b50505050565b61257d8383612bc4565b61258a60008484846125ce565b6125c9576040517f08c379a00000000000000000000000000000000000000000000000000000000081526004016125c090613a92565b60405180910390fd5b505050565b60006125ef8473ffffffffffffffffffffffffffffffffffffffff16612de2565b15612758578373ffffffffffffffffffffffffffffffffffffffff1663150b7a02612618611a40565b8786866040518563ffffffff1660e01b815260040161263a9493929190613967565b602060405180830381600087803b15801561265457600080fd5b505af192505050801561268557506040513d601f19601f82011682018060405250810190612682919061340b565b60015b612708573d80600081146126b5576040519150601f19603f3d011682016040523d82523d6000602084013e6126ba565b606091505b50600081511415612700576040517f08c379a00000000000000000000000000000000000000000000000000000000081526004016126f790613a92565b60405180910390fd5b805181602001fd5b63150b7a0260e01b7bffffffffffffffffffffffffffffffffffffffffffffffffffffffff1916817bffffffffffffffffffffffffffffffffffffffffffffffffffffffff19161491505061275d565b600190505b949350505050565b600080600090507a184f03e93ff9f4daa797ed6e38ed64bf6a1f01000000000000000083106127c3577a184f03e93ff9f4daa797ed6e38ed64bf6a1f01000000000000000083816127b9576127b861410e565b5b0492506040810190505b6d04ee2d6d415b85acef81000000008310612800576d04ee2d6d415b85acef810000000083816127f6576127f561410e565b5b0492506020810190505b662386f26fc10000831061282f57662386f26fc1000083816128255761282461410e565b5b0492506010810190505b6305f5e1008310612858576305f5e100838161284e5761284d61410e565b5b0492506008810190505b612710831061287d5761271083816128735761287261410e565b5b0492506004810190505b606483106128a057606483816128965761289561410e565b5b0492506002810190505b600a83106128af576001810190505b80915050919050565b50505050565b6008805490506009600083815260200190815260200160002081905550600881908060018154018082558091505060019003906000526020600020016000909190919091505550565b60006001612914846110bd565b61291e9190613f49565b9050600060076000848152602001908152602001600020549050818114612a03576000600660008673ffffffffffffffffffffffffffffffffffffffff1673ffffffffffffffffffffffffffffffffffffffff168152602001908152602001600020600084815260200190815260200160002054905080600660008773ffffffffffffffffffffffffffffffffffffffff1673ffffffffffffffffffffffffffffffffffffffff168152602001908152602001600020600084815260200190815260200160002081905550816007600083815260200190815260200160002081905550505b6007600084815260200190815260200160002060009055600660008573ffffffffffffffffffffffffffffffffffffffff1673ffffffffffffffffffffffffffffffffffffffff16815260200190815260200160002060008381526020019081526020016000206000905550505050565b60006001600880549050612a889190613f49565b9050600060096000848152602001908152602001600020549050600060088381548110612ab857612ab761419b565b5b906000526020600020015490508060088381548110612ada57612ad961419b565b5b906000526020600020018190555081600960008381526020019081526020016000208190555060096000858152602001908152602001600020600090556008805480612b2957612b2861416c565b5b6001900381819060005260206000200160009055905550505050565b6000612b50836110bd565b905081600660008573ffffffffffffffffffffffffffffffffffffffff1673ffffffffffffffffffffffffffffffffffffffff168152602001908152602001600020600083815260200190815260200160002081905550806007600084815260200190815260200160002081905550505050565b600073ffffffffffffffffffffffffffffffffffffffff168273ffffffffffffffffffffffffffffffffffffffff161415612c34576040517f08c379a0000000000000000000000000000000000000000000000000000000008152600401612c2b90613bd2565b60405180910390fd5b612c3d816123cc565b15612c7d576040517f08c379a0000000000000000000000000000000000000000000000000000000008152600401612c7490613af2565b60405180910390fd5b612c8b60008383600161240d565b612c94816123cc565b15612cd4576040517f08c379a0000000000000000000000000000000000000000000000000000000008152600401612ccb90613af2565b60405180910390fd5b6001600360008473ffffffffffffffffffffffffffffffffffffffff1673ffffffffffffffffffffffffffffffffffffffff16815260200190815260200160002060008282540192505081905550816002600083815260200190815260200160002060006101000a81548173ffffffffffffffffffffffffffffffffffffffff021916908373ffffffffffffffffffffffffffffffffffffffff160217905550808273ffffffffffffffffffffffffffffffffffffffff16600073ffffffffffffffffffffffffffffffffffffffff167fddf252ad1be2c89b69c2b068fc378daa952ba7f163c4a11628f55a4df523b3ef60405160405180910390a4612dde60008383600161256d565b5050565b6000808273ffffffffffffffffffffffffffffffffffffffff163b119050919050565b828054612e1190614033565b90600052602060002090601f016020900481019282612e335760008555612e7a565b82601f10612e4c57805160ff1916838001178555612e7a565b82800160010185558215612e7a579182015b82811115612e79578251825591602001919060010190612e5e565b5b509050612e879190612e8b565b5090565b5b80821115612ea4576000816000905550600101612e8c565b5090565b6000612ebb612eb684613d32565b613d0d565b90508083825260208201905082856020860282011115612ede57612edd6141fe565b5b60005b85811015612f0e5781612ef4888261300c565b845260208401935060208301925050600181019050612ee1565b5050509392505050565b6000612f2b612f2684613d5e565b613d0d565b90508083825260208201905082856020860282011115612f4e57612f4d6141fe565b5b60005b85811015612f7e5781612f648882613118565b845260208401935060208301925050600181019050612f51565b5050509392505050565b6000612f9b612f9684613d8a565b613d0d565b905082815260208101848484011115612fb757612fb6614203565b5b612fc2848285613ff1565b509392505050565b6000612fdd612fd884613dbb565b613d0d565b905082815260208101848484011115612ff957612ff8614203565b5b613004848285613ff1565b509392505050565b60008135905061301b816147c0565b92915050565b600082601f830112613036576130356141f9565b5b8135613046848260208601612ea8565b91505092915050565b600082601f830112613064576130636141f9565b5b8135613074848260208601612f18565b91505092915050565b60008135905061308c816147d7565b92915050565b6000813590506130a1816147ee565b92915050565b6000815190506130b6816147ee565b92915050565b600082601f8301126130d1576130d06141f9565b5b81356130e1848260208601612f88565b91505092915050565b600082601f8301126130ff576130fe6141f9565b5b813561310f848260208601612fca565b91505092915050565b60008135905061312781614805565b92915050565b6000602082840312156131435761314261420d565b5b60006131518482850161300c565b91505092915050565b600080604083850312156131715761317061420d565b5b600061317f8582860161300c565b92505060206131908582860161300c565b9150509250929050565b6000806000606084860312156131b3576131b261420d565b5b60006131c18682870161300c565b93505060206131d28682870161300c565b92505060406131e386828701613118565b9150509250925092565b600080600080608085870312156132075761320661420d565b5b60006132158782880161300c565b94505060206132268782880161300c565b935050604061323787828801613118565b925050606085013567ffffffffffffffff81111561325857613257614208565b5b613264878288016130bc565b91505092959194509250565b600080604083850312156132875761328661420d565b5b60006132958582860161300c565b92505060206132a68582860161307d565b9150509250929050565b600080604083850312156132c7576132c661420d565b5b60006132d58582860161300c565b92505060206132e685828601613118565b9150509250929050565b6000602082840312156133065761330561420d565b5b600082013567ffffffffffffffff81111561332457613323614208565b5b61333084828501613021565b91505092915050565b600080604083850312156133505761334f61420d565b5b600083013567ffffffffffffffff81111561336e5761336d614208565b5b61337a85828601613021565b925050602083013567ffffffffffffffff81111561339b5761339a614208565b5b6133a78582860161304f565b9150509250929050565b6000602082840312156133c7576133c661420d565b5b60006133d58482850161307d565b91505092915050565b6000602082840312156133f4576133f361420d565b5b600061340284828501613092565b91505092915050565b6000602082840312156134215761342061420d565b5b600061342f848285016130a7565b91505092915050565b60006020828403121561344e5761344d61420d565b5b600082013567ffffffffffffffff81111561346c5761346b614208565b5b613478848285016130ea565b91505092915050565b6000602082840312156134975761349661420d565b5b60006134a584828501613118565b91505092915050565b60006134ba838361390a565b60208301905092915050565b6134cf81613f7d565b82525050565b60006134e082613dfc565b6134ea8185613e2a565b93506134f583613dec565b8060005b8381101561352657815161350d88826134ae565b975061351883613e1d565b9250506001810190506134f9565b5085935050505092915050565b61353c81613f8f565b82525050565b600061354d82613e07565b6135578185613e3b565b9350613567818560208601614000565b61357081614212565b840191505092915050565b600061358682613e12565b6135908185613e4c565b93506135a0818560208601614000565b6135a981614212565b840191505092915050565b60006135bf82613e12565b6135c98185613e5d565b93506135d9818560208601614000565b80840191505092915050565b60006135f2602d83613e4c565b91506135fd82614223565b604082019050919050565b6000613615601d83613e4c565b915061362082614272565b602082019050919050565b6000613638602d83613e4c565b91506136438261429b565b604082019050919050565b600061365b602b83613e4c565b9150613666826142ea565b604082019050919050565b600061367e603283613e4c565b915061368982614339565b604082019050919050565b60006136a1602683613e4c565b91506136ac82614388565b604082019050919050565b60006136c4602583613e4c565b91506136cf826143d7565b604082019050919050565b60006136e7601c83613e4c565b91506136f282614426565b602082019050919050565b600061370a601f83613e4c565b91506137158261444f565b602082019050919050565b600061372d602483613e4c565b915061373882614478565b604082019050919050565b6000613750601983613e4c565b915061375b826144c7565b602082019050919050565b6000613773602383613e4c565b915061377e826144f0565b604082019050919050565b6000613796602983613e4c565b91506137a18261453f565b604082019050919050565b60006137b9601683613e4c565b91506137c48261458e565b602082019050919050565b60006137dc602083613e4c565b91506137e7826145b7565b602082019050919050565b60006137ff602083613e4c565b915061380a826145e0565b602082019050919050565b6000613822601883613e4c565b915061382d82614609565b602082019050919050565b6000613845601183613e4c565b915061385082614632565b602082019050919050565b6000613868602183613e4c565b91506138738261465b565b604082019050919050565b600061388b603d83613e4c565b9150613896826146aa565b604082019050919050565b60006138ae602c83613e4c565b91506138b9826146f9565b604082019050919050565b60006138d1603583613e4c565b91506138dc82614748565b604082019050919050565b60006138f4601883613e4c565b91506138ff82614797565b602082019050919050565b61391381613fe7565b82525050565b61392281613fe7565b82525050565b600061393482856135b4565b915061394082846135b4565b91508190509392505050565b600060208201905061396160008301846134c6565b92915050565b600060808201905061397c60008301876134c6565b61398960208301866134c6565b6139966040830185613919565b81810360608301526139a88184613542565b905095945050505050565b600060208201905081810360008301526139cd81846134d5565b905092915050565b60006020820190506139ea6000830184613533565b92915050565b60006020820190508181036000830152613a0a818461357b565b905092915050565b60006020820190508181036000830152613a2b816135e5565b9050919050565b60006020820190508181036000830152613a4b81613608565b9050919050565b60006020820190508181036000830152613a6b8161362b565b9050919050565b60006020820190508181036000830152613a8b8161364e565b9050919050565b60006020820190508181036000830152613aab81613671565b9050919050565b60006020820190508181036000830152613acb81613694565b9050919050565b60006020820190508181036000830152613aeb816136b7565b9050919050565b60006020820190508181036000830152613b0b816136da565b9050919050565b60006020820190508181036000830152613b2b816136fd565b9050919050565b60006020820190508181036000830152613b4b81613720565b9050919050565b60006020820190508181036000830152613b6b81613743565b9050919050565b60006020820190508181036000830152613b8b81613766565b9050919050565b60006020820190508181036000830152613bab81613789565b9050919050565b60006020820190508181036000830152613bcb816137ac565b9050919050565b60006020820190508181036000830152613beb816137cf565b9050919050565b60006020820190508181036000830152613c0b816137f2565b9050919050565b60006020820190508181036000830152613c2b81613815565b9050919050565b60006020820190508181036000830152613c4b81613838565b9050919050565b60006020820190508181036000830152613c6b8161385b565b9050919050565b60006020820190508181036000830152613c8b8161387e565b9050919050565b60006020820190508181036000830152613cab816138a1565b9050919050565b60006020820190508181036000830152613ccb816138c4565b9050919050565b60006020820190508181036000830152613ceb816138e7565b9050919050565b6000602082019050613d076000830184613919565b92915050565b6000613d17613d28565b9050613d238282614065565b919050565b6000604051905090565b600067ffffffffffffffff821115613d4d57613d4c6141ca565b5b602082029050602081019050919050565b600067ffffffffffffffff821115613d7957613d786141ca565b5b602082029050602081019050919050565b600067ffffffffffffffff821115613da557613da46141ca565b5b613dae82614212565b9050602081019050919050565b600067ffffffffffffffff821115613dd657613dd56141ca565b5b613ddf82614212565b9050602081019050919050565b6000819050602082019050919050565b600081519050919050565b600081519050919050565b600081519050919050565b6000602082019050919050565b600082825260208201905092915050565b600082825260208201905092915050565b600082825260208201905092915050565b600081905092915050565b6000613e7382613fe7565b9150613e7e83613fe7565b9250827fffffffffffffffffffffffffffffffffffffffffffffffffffffffffffffffff03821115613eb357613eb26140df565b5b828201905092915050565b6000613ec982613fe7565b9150613ed483613fe7565b925082613ee457613ee361410e565b5b828204905092915050565b6000613efa82613fe7565b9150613f0583613fe7565b9250817fffffffffffffffffffffffffffffffffffffffffffffffffffffffffffffffff0483118215151615613f3e57613f3d6140df565b5b828202905092915050565b6000613f5482613fe7565b9150613f5f83613fe7565b925082821015613f7257613f716140df565b5b828203905092915050565b6000613f8882613fc7565b9050919050565b60008115159050919050565b60007fffffffff0000000000000000000000000000000000000000000000000000000082169050919050565b600073ffffffffffffffffffffffffffffffffffffffff82169050919050565b6000819050919050565b82818337600083830152505050565b60005b8381101561401e578082015181840152602081019050614003565b8381111561402d576000848401525b50505050565b6000600282049050600182168061404b57607f821691505b6020821081141561405f5761405e61413d565b5b50919050565b61406e82614212565b810181811067ffffffffffffffff8211171561408d5761408c6141ca565b5b80604052505050565b60006140a182613fe7565b91507fffffffffffffffffffffffffffffffffffffffffffffffffffffffffffffffff8214156140d4576140d36140df565b5b600182019050919050565b7f4e487b7100000000000000000000000000000000000000000000000000000000600052601160045260246000fd5b7f4e487b7100000000000000000000000000000000000000000000000000000000600052601260045260246000fd5b7f4e487b7100000000000000000000000000000000000000000000000000000000600052602260045260246000fd5b7f4e487b7100000000000000000000000000000000000000000000000000000000600052603160045260246000fd5b7f4e487b7100000000000000000000000000000000000000000000000000000000600052603260045260246000fd5b7f4e487b7100000000000000000000000000000000000000000000000000000000600052604160045260246000fd5b600080fd5b600080fd5b600080fd5b600080fd5b600080fd5b6000601f19601f8301169050919050565b7f4552433732313a2063616c6c6572206973206e6f7420746f6b656e206f776e6560008201527f72206f7220617070726f76656400000000000000000000000000000000000000602082015250565b7f43616e2774206d696e74206d6f7265207468616e207265736572766564000000600082015250565b7f43616e206f6e6c79206d696e74206265747765656e203120616e64203130207460008201527f6f6b656e73206174206f6e636500000000000000000000000000000000000000602082015250565b7f455243373231456e756d657261626c653a206f776e657220696e646578206f7560008201527f74206f6620626f756e6473000000000000000000000000000000000000000000602082015250565b7f4552433732313a207472616e7366657220746f206e6f6e20455243373231526560008201527f63656976657220696d706c656d656e7465720000000000000000000000000000602082015250565b7f4f776e61626c653a206e6577206f776e657220697320746865207a65726f206160008201527f6464726573730000000000000000000000000000000000000000000000000000602082015250565b7f4552433732313a207472616e736665722066726f6d20696e636f72726563742060008201527f6f776e6572000000000000000000000000000000000000000000000000000000602082015250565b7f4552433732313a20746f6b656e20616c7265616479206d696e74656400000000600082015250565b7f43616e2774206d696e74206d6f7265207468616e206d617820737570706c7900600082015250565b7f4552433732313a207472616e7366657220746f20746865207a65726f2061646460008201527f7265737300000000000000000000000000000000000000000000000000000000602082015250565b7f4552433732313a20617070726f766520746f2063616c6c657200000000000000600082015250565b7f4e6f20746f6b656e7320726573657276656420666f7220796f7572206164647260008201527f6573730000000000000000000000000000000000000000000000000000000000602082015250565b7f4552433732313a2061646472657373207a65726f206973206e6f74206120766160008201527f6c6964206f776e65720000000000000000000000000000000000000000000000602082015250565b7f57686974656c6973742069736e27742061637469766500000000000000000000600082015250565b7f4552433732313a206d696e7420746f20746865207a65726f2061646472657373600082015250565b7f4f776e61626c653a2063616c6c6572206973206e6f7420746865206f776e6572600082015250565b7f4552433732313a20696e76616c696420746f6b656e2049440000000000000000600082015250565b7f53616c652069736e277420616374697665000000000000000000000000000000600082015250565b7f4552433732313a20617070726f76616c20746f2063757272656e74206f776e6560008201527f7200000000000000000000000000000000000000000000000000000000000000602082015250565b7f4552433732313a20617070726f76652063616c6c6572206973206e6f7420746f60008201527f6b656e206f776e6572206f7220617070726f76656420666f7220616c6c000000602082015250565b7f455243373231456e756d657261626c653a20676c6f62616c20696e646578206f60008201527f7574206f6620626f756e64730000000000000000000000000000000000000000602082015250565b7f455243373231456e756d657261626c653a20636f6e736563757469766520747260008201527f616e7366657273206e6f7420737570706f727465640000000000000000000000602082015250565b7f57726f6e6720616d6f756e74206f66204554482073656e740000000000000000600082015250565b6147c981613f7d565b81146147d457600080fd5b50565b6147e081613f8f565b81146147eb57600080fd5b50565b6147f781613f9b565b811461480257600080fd5b50565b61480e81613fe7565b811461481957600080fd5b5056fea2646970667358221220c9e45eacacc6cbd63444ad094e24a3653ba69cf344234b3f3ad790a8c6eb234464736f6c6343000805003368747470733a2f2f7261772e67697468756275736572636f6e74656e742e636f6d2f4461766974636f696e2f4f70656e5765622d43727970746f4d582f6d61696e2f5374616b6564656d794e46542f",
  "immutableReferences": {},
  "source": "// SPDX-License-Identifier: MIT\r\npragma solidity 0.8.5;\r\n\r\nimport '@openzeppelin/contracts/token/ERC721/extensions/ERC721Enumerable.sol';\r\nimport '@openzeppelin/contracts/access/Ownable.sol';\r\n\r\ncontract Stakedemy is ERC721Enumerable, Ownable {  \r\n    using Address for address;\r\n    \r\n    // Starting and stopping sale, presale and whitelist\r\n    bool public saleActive = false;\r\n    bool public whitelistActive = false;\r\n    bool public presaleActive = false;\r\n\r\n    // Price of each token\r\n    uint256 public initial_price = 0.001 ether;\r\n    uint256 public price;\r\n\r\n    // Maximum limit of tokens that can ever exist\r\n    uint256 public constant MAX_SUPPLY = 100;\r\n    uint256 public constant MAX_PRESALE_SUPPLY = 1;\r\n    uint256 public constant MAX_MINT_PER_TX = 1;\r\n\r\n    // The base link that leads to the image / video of the token\r\n    string public baseTokenURI = \"https://raw.githubusercontent.com/Davitcoin/OpenWeb-CryptoMX/main/StakedemyNFT/\";\r\n\r\n    // Team addresses for withdrawals\r\n    address public a1;\r\n\r\n    // List of addresses that have a number of reserved tokens for whitelist\r\n    mapping (address => uint256) public whitelistReserved;\r\n\r\n    constructor () ERC721 (\"Stakedemy\", \"SKM\") {\r\n        price = initial_price;\r\n    }\r\n\r\n    // Override so the openzeppelin tokenURI() method will use this method to create the full tokenURI instead\r\n    function _baseURI() internal view virtual override returns (string memory) {\r\n        return baseTokenURI;\r\n    }\r\n\r\n    // See which address owns which tokens\r\n    function tokensOfOwner(address addr) public view returns(uint256[] memory) {\r\n        uint256 tokenCount = balanceOf(addr);\r\n        uint256[] memory tokensId = new uint256[](tokenCount);\r\n        for(uint256 i; i < tokenCount; i++){\r\n            tokensId[i] = tokenOfOwnerByIndex(addr, i);\r\n        }\r\n        return tokensId;\r\n    }\r\n\r\n    // Exclusive whitelist minting\r\n    function mintWhitelist(uint256 _amount) public payable {\r\n        uint256 supply = totalSupply();\r\n        uint256 reservedAmt = whitelistReserved[msg.sender];\r\n        require( whitelistActive,                   \"Whitelist isn't active\" );\r\n        require( reservedAmt > 0,                   \"No tokens reserved for your address\" );\r\n        require( _amount <= reservedAmt,            \"Can't mint more than reserved\" );\r\n        require( supply + _amount <= MAX_SUPPLY,    \"Can't mint more than max supply\" );\r\n        require( msg.value == price * _amount,      \"Wrong amount of ETH sent\" );\r\n        whitelistReserved[msg.sender] = reservedAmt - _amount;\r\n        for(uint256 i; i < _amount; i++){\r\n            _safeMint( msg.sender, supply + i );\r\n        }\r\n    }\r\n\r\n    // Standard mint function\r\n    function mintToken(uint256 _amount) public payable {\r\n        uint256 supply = totalSupply();\r\n        require( saleActive,                                \"Sale isn't active\" );\r\n        require( _amount > 0 && _amount <= MAX_MINT_PER_TX, \"Can only mint between 1 and 10 tokens at once\" );\r\n        require( supply + _amount <= MAX_SUPPLY,            \"Can't mint more than max supply\" );\r\n        require( msg.value == price * _amount,              \"Wrong amount of ETH sent\" );\r\n        for(uint256 i; i < _amount; i++){\r\n            _safeMint( msg.sender, supply + i );\r\n        }\r\n    }\r\n    \r\n    // Edit reserved whitelist spots\r\n    function editWhitelistReserved(address[] memory _a, uint256[] memory _amount) public onlyOwner {\r\n        for(uint256 i; i < _a.length; i++){\r\n            whitelistReserved[_a[i]] = _amount[i];\r\n        }\r\n    }\r\n\r\n    // Start and stop whitelist\r\n    function setWhitelistActive(bool val) public onlyOwner {\r\n        whitelistActive = val;\r\n    }\r\n\r\n    // Start and stop sale\r\n    function setSaleActive(bool val) public onlyOwner {\r\n        saleActive = val;\r\n    }\r\n\r\n    // Set new baseURI\r\n    function setBaseURI(string memory baseURI) public onlyOwner {\r\n        baseTokenURI = baseURI;\r\n    }\r\n\r\n    // Set a different price in case ETH changes drastically\r\n    function setPrice(uint256 newPrice) public onlyOwner {\r\n        price = newPrice;\r\n    }\r\n\r\n    // Set team addresses\r\n    function setAddresses(address[] memory _a) public onlyOwner {\r\n        a1 = _a[0];\r\n    }\r\n\r\n    // Withdraw funds from contract for the team\r\n    function withdrawTeam(uint256 amount) public payable onlyOwner {\r\n        uint256 percent = amount / 100;\r\n        require(payable(a1).send(percent * 100));\r\n    }\r\n}",
  "sourcePath": "C:\\Users\\Tona\\Desktop\\near\\contracts\\Stakedemy.sol",
  "compiler": {
    "name": "solc",
    "version": "0.8.5+commit.a4f2e591.Emscripten.clang"
  },
  "schemaVersion": "3.4.14",
  "updatedAt": "2023-05-26T06:02:13.490Z",
  "networkType": "ethereum",
  "devdoc": {
    "kind": "dev",
    "methods": {
      "approve(address,uint256)": {
        "details": "See {IERC721-approve}."
      },
      "balanceOf(address)": {
        "details": "See {IERC721-balanceOf}."
      },
      "getApproved(uint256)": {
        "details": "See {IERC721-getApproved}."
      },
      "isApprovedForAll(address,address)": {
        "details": "See {IERC721-isApprovedForAll}."
      },
      "name()": {
        "details": "See {IERC721Metadata-name}."
      },
      "owner()": {
        "details": "Returns the address of the current owner."
      },
      "ownerOf(uint256)": {
        "details": "See {IERC721-ownerOf}."
      },
      "renounceOwnership()": {
        "details": "Leaves the contract without owner. It will not be possible to call `onlyOwner` functions. Can only be called by the current owner. NOTE: Renouncing ownership will leave the contract without an owner, thereby disabling any functionality that is only available to the owner."
      },
      "safeTransferFrom(address,address,uint256)": {
        "details": "See {IERC721-safeTransferFrom}."
      },
      "safeTransferFrom(address,address,uint256,bytes)": {
        "details": "See {IERC721-safeTransferFrom}."
      },
      "setApprovalForAll(address,bool)": {
        "details": "See {IERC721-setApprovalForAll}."
      },
      "supportsInterface(bytes4)": {
        "details": "See {IERC165-supportsInterface}."
      },
      "symbol()": {
        "details": "See {IERC721Metadata-symbol}."
      },
      "tokenByIndex(uint256)": {
        "details": "See {IERC721Enumerable-tokenByIndex}."
      },
      "tokenOfOwnerByIndex(address,uint256)": {
        "details": "See {IERC721Enumerable-tokenOfOwnerByIndex}."
      },
      "tokenURI(uint256)": {
        "details": "See {IERC721Metadata-tokenURI}."
      },
      "totalSupply()": {
        "details": "See {IERC721Enumerable-totalSupply}."
      },
      "transferFrom(address,address,uint256)": {
        "details": "See {IERC721-transferFrom}."
      },
      "transferOwnership(address)": {
        "details": "Transfers ownership of the contract to a new account (`newOwner`). Can only be called by the current owner."
      }
    },
    "version": 1
  },
  "userdoc": {
    "kind": "user",
    "methods": {},
    "version": 1
  }
}